{
  "abi": [
    {
      "inputs": [],
      "name": "addr",
      "outputs": [
        {
          "internalType": "address",
          "name": "",
          "type": "address"
        }
      ],
      "stateMutability": "view",
      "type": "function"
    },
    {
      "inputs": [],
      "name": "b",
      "outputs": [
        {
          "internalType": "bool",
          "name": "",
          "type": "bool"
        }
      ],
      "stateMutability": "view",
      "type": "function"
    },
    {
      "inputs": [],
      "name": "b32",
      "outputs": [
        {
          "internalType": "bytes32",
          "name": "",
          "type": "bytes32"
        }
      ],
      "stateMutability": "view",
      "type": "function"
    },
    {
      "inputs": [],
      "name": "i",
      "outputs": [
        {
          "internalType": "int256",
          "name": "",
          "type": "int256"
        }
      ],
      "stateMutability": "view",
      "type": "function"
    },
    {
      "inputs": [],
      "name": "maxInt",
      "outputs": [
        {
          "internalType": "int256",
          "name": "",
          "type": "int256"
        }
      ],
      "stateMutability": "view",
      "type": "function"
    },
    {
      "inputs": [],
      "name": "minInt",
      "outputs": [
        {
          "internalType": "int256",
          "name": "",
          "type": "int256"
        }
      ],
      "stateMutability": "view",
      "type": "function"
    },
    {
      "inputs": [],
      "name": "u",
      "outputs": [
        {
          "internalType": "uint256",
          "name": "",
          "type": "uint256"
        }
      ],
      "stateMutability": "view",
      "type": "function"
    }
  ],
  "bytecode": {
    "object": "0x60806040526000805460ff19166001908117909155607b9055607a19600255600160ff1b6003556001600160ff1b03600455600580546001600160a01b03191673c02aaa39b223fe8d0a0e5c4f27ead9083c756cc2179055631d195cdd60e21b60065534801561006e57600080fd5b5061012d8061007e6000396000f3fe6080604052348015600f57600080fd5b506004361060735760003560e01c80637e4e14cc1160545780637e4e14cc1460d7578063c6a898c51460df578063e5aa3d581460e7578063f8aab2381460ef57600080fd5b80634df7e3d0146078578063767800de1460995780637a4c25711460c2575b600080fd5b60005460849060ff1681565b60405190151581526020015b60405180910390f35b60055460ab906001600160a01b031681565b6040516001600160a01b0390911681526020016090565b60ca60045481565b6040519081526020016090565b60ca60035481565b60ca60015481565b60ca60025481565b60ca6006548156fea264697066735822122093978ffca2701123e153c8609ea31b5d2a6b56c196ac3f7297efd42333b9334864736f6c63430008140033",
    "linkReferences": {}
  },
  "methodIdentifiers": {
    "addr()": "767800de",
    "b()": "4df7e3d0",
    "b32()": "f8aab238",
    "i()": "e5aa3d58",
    "maxInt()": "7a4c2571",
    "minInt()": "7e4e14cc",
    "u()": "c6a898c5"
  },
  "id": 13
}